:020000040000FA
:0600000013EF22F01200D4
:0600080004EF08F01200F5
:060018000CEF08F01200DD
:0610000013EF22F01200C4
:0610080067EF12F0120078
:06101800BAEF12F0120015
:06102A0001007444000007
:08103000F000000006000000C2
:08103800D9CFE6FFE1CFD9FF9B
:10104000E652A09A6A6A686A706A010EE66EE66AFB
:10105000E66A710EE66E0F0EE66ED8EC20F0146EA6
:10106000050EE15E1450160E6F6E9F0E6B6E7B0EBA
:10107000696EDF6ADF50146E156A080E145C000E8C
:10108000155810E2DF50040DF3CFE9FFF4CFEAFF6B
:10109000000EE926040EEA22EE6AEE6AEE6AEE6AB5
:1010A000DF2AE8D76D8C6E6A6D986D9C68A607D0B4
:1010B00068960101146B196B1A6B1B6BF7D7010152
:1010C000010E2C6F2D6F2E6B2F6B226BDF6A020EC1
:1010D000DF5C26E2EA6ADF34FE0BEA36E96E0B0ECD
:1010E000E926010EEA22EE6AED6AEA6ADF34FE0BB7
:1010F000EA36E96E070EE926010EEA22EE6AED6A8B
:10110000DF50EA6A260FE96E010EEA22EF6ADF502D
:10111000EA6A280FE96E010EEA22EF6ADF2AD7D7C2
:101120000101080E0B6F040E0C6F160E706E040199
:10113000200E026F040E036F400E016F840E006FCD
:101140000101016B006BE552E552E7CFD9FF1200B8
:10115000D9CFE6FFE1CFD9FFE6520101000507E153
:101160006DBA05D0686A69806988020E006F6850A0
:10117000040B05E06950040B02E06894CBD86DA223
:1011800002D0A19A94D06850010B09E06950010B7C
:1011900006E052DFA08A0101040E006F68906850DB
:1011A000100B05E06950100B02E09FD8689868ACFE
:1011B00019D069AC0FD0010EE66EE66A000EE66E3D
:1011C000E66A730EE66EE66A98EC14F0146E060E8C
:1011D000E15E1450689C01012A5101E02A072A515E
:1011E00001E176DB6850200B04E06950200B01E040
:1011F00063D86850020B13E06950020B10E0010E37
:10120000E66EE66A000EE66EE66AE6687F0EE66E59
:1012100098EC14F0146E060EE15E14506A6A040E27
:101220000101E76E0019E8AE02D0E73402D0E750C2
:10123000005D02E2A19A3BD069A638D0DF6A040EB5
:10124000DF5C34E268A631D06CCF23F10101235179
:10125000780BE842E842E842246F689623B508D04C
:101260002451EA6A280FE96E010EEA22EF7007D0D6
:101270002451EA6A260FE96E010EEA22EF7024512A
:1012800002E15FD810D0000EE66EE66A230EE66E2D
:10129000010EE66E720EE66EE66A98EC14F0146EBD
:1012A000060EE15E1450DF2ACAD700D0A19AE5529B
:1012B000E552E7CFD9FF120070A015D003C1E9FFB6
:1012C00004C1EAFFEF5080080DE10BC1E9FF0CC13A
:1012D000EAFFEF50840806E103C1E9FF04C1EAFF19
:1012E0008C0EEF6E7090689A1200698468986D8217
:1012F0000101010E226F000EE66EE66AE66EE66AF6
:10130000750EE66EE66A98EC14F0146E060EE15E59
:10131000145012000101226B000EE66EE66AE66EC2
:10132000E66A740EE66EE66A98EC14F0146E060E29
:10133000E15E14506D92699468A402D06894FCD761
:101340001200D9CFE6FFE1CFD9FFE65201012D0E01
:101350002A6FFD0E231553E17E0E2315E8407F0B07
:10136000040DF3CF03F1F4CF04F1000E0327040EB4
:10137000042303C105F104C106F1057503C1E9FFAA
:1013800004C1EAFFEF503C0BE842E8420D0835E1AA
:10139000DF6A080EDF5C23E203C1E9FF04C1EAFF54
:1013A000020EE926000EEA22EE50EFCFEAFFE96EC8
:1013B000EF50E66EDF50EA6A200FE96E040EEA2273
:1013C000E552E750EF6E03C1E9FF04C1EAFF020EE8
:1013D000E926000EEA22EE2AEF22DF2ADAD703C13D
:1013E000E9FF04C1EAFF020EE926000EEA22200E00
:1013F000EE6E040EED6E0DD801D03AD805D0FD0E7C
:101400002315040801E15AD8E552E552E7CFD9FF88
:10141000120001010F6B2B6B2E6B2F6B256B106B6A
:101420000BC1E9FF0CC1EAFFEF9E0B750BC1E9FF91
:101430000CC1EAFFEF9E0B7505C1E9FF06C1EAFF8B
:10144000EF9E146B156B166B196B1A6B1B6B94D894
:10145000000EE66EE66AE66EE66A030EE66EE66A81
:1014600098EC14F0146E060EE15E145013EF0EF0BB
:10147000020E0101105D03E1D9EC0EF01ED0106BDD
:1014800025511AE105C1E9FF06C1EAFFEE52400EFF
:10149000EF6E05C1E9FF06C1EAFF020EE926000E64
:1014A000EA22200EEE6E040EED6E05C1E9FF06C1C4
:1014B000EAFF8C0EEF6E01D0256B1200D9CFE6FF4C
:1014C000E1CFD9FFE6520BC1E9FF0CC1EAFFEF50B3
:1014D000400B01E0010EDF6E01010B75080E005D8F
:1014E00009E122C46EFF6E5003E0100E006F02D0BF
:1014F000040E006F100529E10BC1E9FF0CC1EAFFE2
:10150000020EE926000EEA22280EEE6E040EED6EA3
:1015100074EC0EF0020E01010F5D07E10BC1E9FF53
:101520000CC1EAFF840EEF6E0FD0DF5007E10BC154
:10153000E9FF0CC1EAFFC80EEF6E06D00BC1E9FF50
:101540000CC1EAFF880EEF6E12D019AF0FD01C51FC
:101550001D111E1109E007D01EC1FBFF1DC1FAFFBE
:1015600001011C51F96EF8DF0101199F106BE55262
:10157000E552E7CFD9FF120004012051600BE84289
:10158000E842E842E842E842000901E059D021512E
:101590000C0A55E00B0A44E00C0A36E0010A27E089
:1015A0000B0A23E0020A21E0030A1DE0080A11E009
:1015B000010A0CE00F0A08E0030A01E040D0010133
:1015C000148F080E006F3CD014DA3AD07CEC0FF088
:1015D00037D00101010E116F010E126F1481010E3F
:1015E000156F148F2DD0B7DA2BD02BD829D02451DA
:1015F0000101116F126B020E1127010E12231481CB
:10160000010E156F148F1CD00101148F0401245199
:10161000EA6A020FE96E010EEA2222C4EFFF10D03F
:10162000000EE66EE66AE66EE66A020EE66EE66AB0
:1016300098EC14F0146E060EE15E145001D000D048
:101640001200D9CFE6FFE1CFD9FF050EE126040154
:10165000220510E120511F0B00090CE10101148F3C
:10166000030E0401215D04E10101010E216F02D08E
:101670000101216B0401225101E020D120511F0BF7
:10168000020801E01BD124510F0B000901E116D122
:1016900024510F0B010801E211D1200E0101005D60
:1016A00001E00CD1148F040124BF1AD024510F0B78
:1016B000E96EEA6AD890E936EA36070EE926010EA5
:1016C000EA22EECFDEFFEDCFDDFF24510F0BEA6AF9
:1016D000280FE96E010EEA22020EEFCFDBFF19D0D0
:1016E00024510F0BE96EEA6AD890E936EA360B0E00
:1016F000E926010EEA22EECFDEFFEDCFDDFF245119
:101700000F0BEA6A260FE96E010EEA22020EEFCFF6
:10171000DBFFD950020FE96EDACFEAFFEF50010B81
:1017200003E1000EDF9401D0DF8424BF10D02451E8
:101730000F0BE96EEA6AD890E936EA36070EE92619
:10174000010EEA22DECFEEFFDDCFEDFF0FD02451F8
:101750000F0BE96EEA6AD890E936EA360B0EE926F5
:10176000010EEA22DECFEEFFDDCFEDFF030E215D9D
:1017700023E1DECFE9FFDDCFEAFFEF50800B13E07E
:1017800024BF09D024510F0BEA6A280FE96E010E1D
:10179000EA22EF8208D024510F0BEA6A260FE96E85
:1017A000010EEA22EF82840E146EDECFE9FFDDCF58
:1017B000EAFF1450EF1282D0DF74DECFE9FFDDCFF5
:1017C000EAFFEF50800B1BE0DECFE9FFDDCFEAFF41
:1017D000EF9EDECFE9FFDDCFEAFFEF8C020EE66E73
:1017E000E66ADECFE6FFDDCFE6FF050EE66EE66ACF
:1017F00098EC14F0146E060EE15E145005D0DECFA6
:10180000E9FFDDCFEAFFEF8CDF74D950020FE96EFC
:10181000DACFEAFFEF50020B07E1DECFE9FFDDCFC1
:10182000EAFFEF50800B2DE0040124BF09D02451C2
:101830000F0BEA6A280FE96E010EEA22EF9208D038
:1018400024510F0BEA6A260FE96E010EEA22EF928D
:101850003B0E146EDECFE9FFDDCFEAFF1450EF162A
:10186000020EE66EE66ADECFE6FFDDCFE6FF050E8E
:10187000E66EE66A98EC14F0146E060EE15E145003
:1018800008D03B0E146EDECFE9FFDDCFEAFF145027
:10189000EF16040124510F0B156A700F146E0F0E12
:1018A0001522030E14C0DBFF040E15C0DBFF030E70
:1018B000DBCFE9FF040EDBCFEAFFEF90050EE15C22
:1018C00002E2E16AE552E16EE552E7CFD9FF12008C
:1018D00001012C514DE1010E2C6F2D5149E1010EFA
:1018E0002D6F020E105D0DE10BC1E9FF0CC1EAFF87
:1018F000EE52EF6A0BC1E9FF0CC1EAFFC80EEF6EB2
:1019000037D0100535E1256B03C1E9FF04C1EAFFBB
:10191000EE52400EEF6E03C1E9FF04C1EAFF020E72
:10192000E926000EEA22200EEE6E040EED6E03C1D3
:10193000E9FF04C1EAFF840EEF6E010E256F05C1B9
:10194000E9FF06C1EAFFEE52400EEF6E05C1E9FF66
:1019500006C1EAFF020EE926000EEA22200EEE6E14
:10196000040EED6E05C1E9FF06C1EAFF800EEF6EC1
:10197000120001012E6B2F6B020E105D1AE105C1E2
:10198000E9FF06C1EAFFEE52400EEF6E05C1E9FF26
:1019900006C1EAFF020EE926000EEA22280EEE6ECC
:1019A000040EED6E05C1E9FF06C1EAFFC80EEF6E39
:1019B0001FD015510401265D01011651040127595C
:1019C00004E226C415F127C416F18ED90BC1E9FF34
:1019D0000CC1EAFF020EE926000EEA22280EEE6E86
:1019E000040EED6E0BC1E9FF0CC1EAFFC80EEF6EED
:1019F0001200800E0401205D01E0ACD00101C00E98
:101A0000146F04012351030A61E0010A10E0030A84
:101A100003E00101146B9ED001013A0E116F3E0EDE
:101A2000126F000E136F120E156F166B93D06B0EA4
:101A3000146E3F0E156E000E166E22C417F0186A53
:101A4000196A030E0C6E0D6A0E6A17C007F018C0F3
:101A500008F019C009F0BDEC1FF004C017F005C074
:101A600018F006C019F014501724F36E1550182002
:101A7000F46E16501920F86EF4CFF7FFF3CFF6FF8F
:101A80000900F5CF11F10900F5CF12F10800F5CFEB
:101A900013F111C1F6FF12C1F7FF13C1F8FF020ED7
:101AA000F626000EF722F8220800F5CF15F111C135
:101AB000F6FF12C1F7FF13C1F8FF030EF626000E62
:101AC000F722F8220800F5CF16F144D0030E225D6C
:101AD0003EE26E0E146E3F0E156E000E166E22C4A0
:101AE00017F0186A196A030E0C6E0D6A0E6A17C099
:101AF00007F018C008F019C009F0BDEC1FF004C0D1
:101B000017F005C018F006C019F014501724F36E32
:101B100015501820F46E16501920F86EF4CFF7FF08
:101B2000F3CFF6FF0900F5CF11F10900F5CF12F15F
:101B30000800F5CF13F111C1F6FF12C1F7FF13C171
:101B4000F8FF0800F5500101156F166B02D0010176
:101B5000146B00D01200D9CFE6FFE1CFD9FF020EFF
:101B6000E1260401286B296B20511F0B020A12E0A9
:101B7000030A0DE0010A01E042D00101148F0401C3
:101B800028810101210502E10401288338D00101E7
:101B9000148F35D00101148F040124BF10D02451BB
:101BA0000F0BE96EEA6AD890E936EA36070EE926A5
:101BB000010EEA22EECFDEFFEDCFDDFF0FD0245184
:101BC0000F0BE96EEA6AD890E936EA360B0EE92681
:101BD000010EEA22EECFDEFFEDCFDDFFDECFE9FF23
:101BE000DDCFEAFFEF50800B09E0DECFE9FFDDCF6C
:101BF000EAFFEF50040B02E0010E286F00D0010154
:101C000014AF07D0280E116F040E126F1481020E4C
:101C1000156F020EE15C02E2E16AE552E16EE55207
:101C2000E7CFD9FF12006D98010114BF2BD019AF77
:101C300009D0020E106F2F5101E19BDE01012D6BC7
:101C40002C6B1FD005C1E9FF06C1EAFFEE52400E22
:101C5000EF6E05C1E9FF06C1EAFF020EE926000E9C
:101C6000EA22200EEE6E040EED6E05C1E9FF06C1FC
:101C7000EAFF8C0EEF6E0BC1E9FF0CC1EAFF840E88
:101C8000EF6E31D0040120AF0DD00101010E106FB5
:101C90002E5101E16EDE01012D6B2C6B2B5101E108
:101CA00017DE21D00101020E106F05C1E9FF06C148
:101CB000EAFFEE52400EEF6E05C1E9FF06C1EAFFF2
:101CC000020EE926000EEA22200EEE6E040EED6EE4
:101CD00005C1E9FF06C1EAFF840EEF6E2D6B2C6B88
:101CE0002B5101E1F5DD1200D9CFE6FFE1CFD9FF9D
:101CF000E652400EDF6E0101155D000E16590BE233
:101D000015C1DFFF0F5103E1010E0F6F04D00F0566
:101D100002E1020E0F6FDF50146E156A1450155D4C
:101D2000156F15501659166F0BC1E9FF0CC1EAFF6C
:101D3000EE52DFCFEFFF280E1F6F040E206F14B19D
:101D40001CD0DF5019E011C1F6FF112B12C1F7FFB3
:101D5000000E122313C1F8FF13230800F550E66E9E
:101D60001FC1E9FF20C1EAFF1F2B000E2023E5520F
:101D7000E750EF6EDF06E5D717D0DF5015E011C151
:101D8000E9FF12C1EAFF112B000E1223EF50E66E9D
:101D90001FC1E9FF20C1EAFF1F2B000E2023E552DF
:101DA000E750EF6EDF06E9D7E552E552E7CFD9FFFE
:101DB0001200D9CFE6FFE1CFD9FF020EE12603C121
:101DC000E9FF04C1EAFFEE52EFCFDFFFDFCF14F0EF
:101DD000145001011A5D000E1B5902E21AC1DFFF07
:101DE000DF50146E156A14501A5D1A6F15501B5986
:101DF0001B6F010EDB6ADF50F36E010EDBCFF4FFC9
:101E0000F350F45C16E2010EDB50EA6A280FE96E2B
:101E1000040EEA22EF50E66E17C1E9FF18C1EAFF8F
:101E2000172B000E1823E552E750EF6E010EDB2A48
:101E3000E2D7000ED8801A55000E1B5528E205C1C6
:101E4000E9FF06C1EAFFEE52400EEF6E05C1E9FF61
:101E500006C1EAFF020EE926000EEA22280EEE6E07
:101E6000040EED6E03C1E9FF04C1EAFFEF50400B21
:101E700007E105C1E9FF06C1EAFFC80EEF6E06D013
:101E800005C1E9FF06C1EAFF880EEF6E2BD005C140
:101E9000E9FF06C1EAFFEE52400EEF6E05C1E9FF11
:101EA00006C1EAFF020EE926000EEA22200EEE6EBF
:101EB000040EED6E05C1E9FF06C1EAFF840EEF6E68
:101EC0001C511D111E1109E007D01EC1FBFF1DC1D1
:101ED000FAFF01011C51F96EF8DF0101199F2B5126
:101EE00001E1F6DC020EE15C02E2E16AE552E16E3C
:101EF000E552E7CFD9FF1200D9CFE6FFE1CFD9FFF6
:101F0000E6520101148F010EE66EE66AE66A710E72
:101F1000E66E0F0EE66ED8EC20F0146E050EE15E54
:101F20001450DF6ADF50146E156A080E145C000E40
:101F3000155810E2DF50040DF3CFE9FFF4CFEAFFAC
:101F4000000EE926040EEA22EE6AEE6AEE6AEE6AF6
:101F5000DF2AE8D76D8CDF6A020EDF5C10E2DF500B
:101F6000EA6A260FE96E010EEA22EF6ADF50EA6A9A
:101F7000280FE96E010EEA22EF6ADF2AEDD7010E83
:101F8000E66EE66AE66A020EE66E010EE66ED8ECD2
:101F900020F0146E050EE15E14506D9C0101080ED8
:101FA0000B6F040E0C6F000E036F040E046F03C161
:101FB00005F104C106F122C401F1015103E1100E43
:101FC000006F13D0010EE66EE66A010EE66E010E9A
:101FD000E66E010EE66EE66A98EC14F0146E060EDC
:101FE000E15E14500101200E006FE552E552E7CF8B
:101FF000D9FF1200D9CFE6FFE1CFD9FF020EE126CB
:10200000000EDE6E040EDD6EFD0EDB50E824166E53
:10201000FE0EDB50040DF3501624040DF3CF14F024
:10202000F4CF15F0D9CFE9FFDACFEAFF1450EE264E
:102030001550ED22DECFE9FFDDCFEAFFEF9EFD0E6A
:10204000DB500FE1FE0EEA6ADB34FE0BEA36E96E86
:10205000070EE926010EEA22DECFEEFFDDCFEDFF0F
:102060000ED0FE0EEA6ADB34FE0BEA36E96E0B0E8A
:10207000E926010EEA22DECFEEFFDDCFEDFFDECF57
:10208000E9FFDDCFEAFFEF9CDECFE9FFDDCFEAFF1E
:10209000040EE926000EEA22EF8C020EE15C02E259
:1020A000E16AE552E16EE552E7CFD9FF1200D9CFE0
:1020B000E6FFE1CFD9FF020EE126FD0EDBA407D03B
:1020C000E66AFE0EDBCFE6FF95DFE552E552FD0E38
:1020D000DBA208D0010EE66EFE0EDBCFE6FF8ADF44
:1020E000E552E552FE0EDB50156A700F146E0F0EAE
:1020F000152214C0DEFF15C0DDFFDECFE9FFDDCF06
:10210000EAFFFD0EDBCFEFFF020EE15C02E2E16AC7
:10211000E552E16EE552E7CFD9FF1200D9CFE6FFD5
:10212000E1CFD9FF020EE126FE0EDB5020E105C112
:10213000E9FF06C1EAFFEE52400EEF6E05C1E9FF6E
:1021400006C1EAFF020EE926000EEA22200EEE6E1C
:10215000040EED6E05C1E9FF06C1EAFF8C0EEF6EBD
:102160000BC1E9FF0CC1EAFF840EEF6E3DD0FD0EFE
:10217000DB50E824166EFE0EDB50040DF3501624DF
:10218000040DF3CF14F0F4CF15F0000E1426040E56
:10219000152214C0DEFF15C0DDFF840E146EDECFE5
:1021A000E9FFDDCFEAFF1450EF12FD0EDB50E8240B
:1021B000166EFE0EDB50040DF3501624010F040DB5
:1021C000F3CF14F0F4CF15F0000E1426040E1522F0
:1021D00014C0DEFF15C0DDFF840E146EDECFE9FFF4
:1021E000DDCFEAFF1450EF12020EE15C02E2E16A79
:1021F000E552E16EE552E7CFD9FF1200D9CFE6FFF5
:10220000E1CFD9FF020EE126FD0EDB500FE0FE0EFE
:10221000EA6ADB34FE0BEA36E96E0B0EE926010EA4
:10222000EA22EECFDEFFEDCFDDFF0ED0FE0EEA6A32
:10223000DB34FE0BEA36E96E070EE926010EEA22D0
:10224000EECFDEFFEDCFDDFFD9CFE9FFDACFEAFF3A
:10225000EE50ED1003E1F36AF46A49D0DECFE9FFF6
:10226000DDCFEAFF020EE926000EEA22FB0EDBCFED
:10227000EEFFFC0EDBCFEDFFDECFE9FFDDCFEAFFA7
:10228000EE52FA0EDBCFEFFF400E146EDECFE9FF09
:10229000DDCFEAFF1450EF16880E146EDECFE9FF93
:1022A000DDCFEAFF1450EF12FD0EDB500CE0FE0E06
:1022B000EA6ADB34FE0BEA36E96E0B0EE926010E04
:1022C000EA22EF740BD0FE0EEA6ADB34FE0BEA362C
:1022D000E96E070EE926010EEA22EF74DECF14F054
:1022E000DDCF15F014C0F3FF15C0F4FF00D0020ECF
:1022F000E15C02E2E16AE552E16EE552E7CFD9FF27
:102300001200D9CFE6FFE1CFD9FF6DA84ED0FE0E67
:10231000EA6ADB34FE0BEA36E96E0B0EE926010EA3
:10232000EA22EE50EFCFEAFFE96E400EEE16EE6ABB
:10233000EE6AEE6AFE0EEA6ADB34FE0BEA36E96EFE
:102340000B0EE926010EEA22EE50EFCFEAFFE96E0E
:10235000EE7CFE0EEA6ADB34FE0BEA36E96E0B0E0B
:10236000E926010EEA22EF74400E146EFE0EEA6AB0
:10237000DB34FE0BEA36E96E0B0EE926010EEA228B
:10238000EE50EFCFEAFFE96E1450EF16FE0EEA6A48
:10239000DB34FE0BEA36E96E0B0EE926010EEA226B
:1023A000EE50EFCFEAFFE96EEF7CE552E7CFD9FFC1
:1023B00012006D6A696A0101006B00D01200010110
:1023C000005113E16D6A696A160E6F6E9F0E6B6E97
:1023D0007B0E696ED08EA28AA08AF28E6DB602D074
:1023E0006D86FCD70101010E006F1200040120511F
:1023F0001F0B010801E06AD0245101E067D0060EEE
:10240000215D27E12351230A23E0010A12E0030A98
:1024100001E01FD0010101050BE15E0E116F3E0EC0
:10242000126F000E136F090E156F166BC00E146F2E
:1024300010D0010101050BE1D70E116F3E0E126F96
:10244000000E136F940E156F166BC00E146F01D033
:1024500000D004012051600BE842E842E842E84223
:10246000E842010801E032D021510B0A29E0080AB4
:102470001CE0090A14E0080A07E00B0A04E0080A55
:1024800001E024D023D022D00101300E116F010EC3
:10249000126F010E156F166BC10E146F17D001016C
:1024A000800E146F23C430F111D00101310E116F71
:1024B000010E126F010E156F166B810E146F06D090
:1024C0000101800E146F22C431F100D01200DACF66
:1024D000E4FFE2CFDAFFE9CFE4FFEACFE4FFF6CF93
:1024E000E4FFF7CFE4FFF8CFE4FFF5CFE4FFF3CF4D
:1024F000E4FFF4CFE4FFFACFE4FFFBCFE4FF00EE0C
:1025000000F0140EE80403E3EECFE4FFFBD700EE87
:1025100014F0070EE80403E3EECFE4FFFBD7E65226
:10252000A8EC08F0E55200EE1AF0070EE80403E309
:10253000E5CFEDFFFBD700EE13F0140EE80403E344
:10254000E5CFEDFFFBD7E5CFFBFFE5CFFAFFE5CF0A
:10255000F4FFE5CFF3FFE5CFF5FFE5CFF8FFE5CFDB
:10256000F7FFE5CFF6FFE5CFEAFFE5CFE9FFE5CFDF
:10257000DAFF1100D8CFE4FFE0CFE4FFE46EDACF5A
:10258000E4FFE2CFDAFFE652F2A404D08C7EF294AC
:10259000D76AD66AE552E5CFDAFFE550E5CFE0FF2E
:1025A000E5CFD8FF100044D80ADF49EC1DF09E0E9D
:1025B000E66E430EE66E000EE66E350EE66E010E1A
:1025C000E66E33EC20F0146E050EE15E1450350E0D
:1025D000E66E010EE66E51EC1DF0E552E552860EF8
:1025E000E66E430EE66E000EE66E350EE66E010EEA
:1025F000E66E33EC20F0146E050EE15E1450350EDD
:10260000E66E010EE66E51EC1DF0E552E55201DA80
:10261000C9CF32F1CA946BD89E0E0101325D03E03E
:10262000F29EEADB01D0F28E2EDBEDD9F4D7120058
:102630000F0EC16ED08EF28EF28CF28ED58ED59C9E
:10264000D59AD596D580D582D584D76AD66AF194A5
:10265000F294F28A200E926E010E936E946A956A3D
:10266000966A806A816A826A836A846A02D81CEFE9
:1026700008F00001F06BF16BF26BF36B1200D9CF35
:10268000E6FFE1CFD9FFFE0EDB500F0B100DF3CFAD
:1026900014F0FE0EDB50F00BE8380F0B1410E76E51
:1026A000FE0EE7CFDBFFDB50330B040DF3CF14F04E
:1026B000FE0EDB50CC0BE840E8403F0B1410E76EF9
:1026C000FE0EE7CFDBFFDB50550BE824146EFE0E49
:1026D000DB50AA0BE8407F0B1410E76EFE0EE7CF2D
:1026E000DBFFDB5000D0E552E7CFD9FF1200200E10
:1026F0000101E76E0019E8AE02D0E73402D0E750DE
:10270000005D03E36D50020B01E027D00001F5519D
:1027100024E0310EE66E400EE66E050EE66E010E0A
:10272000E66EE66E6BDD146E050EE15E1450F3CFBF
:10273000F2F0F4CFF3F0310EE66E000EE66E050E09
:10274000E66EE66A010EE66E59DD146E050EE15E78
:102750001450F3CFF0F0F4CFF1F012001200120099
:1027600012001200A10E0401205D6FE121056DE150
:10277000F70E221902E1030E23195BE0F80E22196D
:1027800002E1030E231949E0EF0E221902E1030EC4
:10279000231937E0F50E221902E1030E231925E073
:1027A000F20E221902E1030E231913E0010E221981
:1027B00002E1030E231901E048D00101BA0E116FA6
:1027C0003C0E126F136B400E156F166B800E146F5C
:1027D0003CD00101FA0E116F3C0E126F136B400ECC
:1027E000156F166B800E146F30D001013A0E116F09
:1027F0003D0E126F136B400E156F166B800E146F2B
:1028000024D001017A0E116F3D0E126F136B400E32
:10281000156F166B800E146F18D00101BA0E116F70
:102820003D0E126F136B400E156F166B800E146FFA
:102830000CD00101FA0E116F3D0E126F136B400E9A
:10284000156F166B800E146F00D0210E0401205DF1
:102850002FE1090E215D2CE1F50E221902E1030E94
:10286000231918E0F40E221902E1030E231901E0E6
:102870001FD00101000E176F050E186F26C41AF144
:1028800027C41BF11C6B1D6B1E6B198F0001010E01
:10289000F56F0ED00101000E176F050E186F26C4DC
:1028A0001AF127C41BF11C6B1D6B1E6B198F00D016
:1028B000F6EF11F012001E0EE66E010EE66E57ECFA
:1028C00010F0E552E552310EE66E000EE66E050E92
:1028D000E66EE66A010EE66E91DC146E050EE15EB0
:1028E0001450F3CFF0F0F4CFF1F012000101210504
:1028F0001EE122051CE1A09A32DF6D920101226BDC
:10290000100E756F0E0E766F7507000E765B7551A3
:102910007611FAE16D84080E756F070E766F7507F4
:10292000000E765B75517611FAE16D94A08A120063
:10293000D9CFE6FFE1CFD9FFFD0EDBCF08F0FE0EC9
:10294000DBCF09F0E868081802E17F0E091831E0D2
:10295000030E081801E109502AE0020E081801E1EF
:10296000095023E0010E081801E109501CE0740E23
:10297000081801E1095015E0750E081801E1095029
:102980000EE0730E081801E1095007E0720E0818F6
:1029900001E1095001E00FD00ED0E2DE0CD0DEDE06
:1029A0000AD0DDDE08D087DF06D084DF04D0DADE8F
:1029B00002D0D7DE00D0010E00D0E552E7CFD9FF1C
:1029C0001200D9CFE6FFE1CFD9FFE652DF6AFE0E53
:1029D000DB50DF5C03E20000DF2AF9D7E552E55265
:1029E000E7CFD9FF1200D9CFE6FFE1CFD9FFFE0E26
:1029F000DB500C0DF350E66EF3EC21F0E552E5529E
:102A0000E7CFD9FF1200270EE66EF3EC21F0E55276
:102A10001200C76A330EC66ECC6A0F0ECB6E9E963E
:102A2000C26AC16E1200D9CFE6FFE1CFD9FFE652EC
:102A3000CC6AFE0EDB50C96ECA849EA6FED79E9657
:102A4000C950DF6E1D0EE66EBCDFE552DF5000D0D0
:102A5000E552E552E7CFD9FF12008C9A150EE66ECB
:102A6000B0DFE552800EE66EDEDFE552420EE66E26
:102A7000DADFE552E66AD7DFE552E66AD4DFE552EF
:102A8000E66AD1DFE552150EE66E9BDFE5528C8AD1
:102A900012008C9A150EE66E94DFE552800EE66EFB
:102AA000C2DFE552C20EE66EBEDFE552E66ABBDF6C
:102AB000E5520101326F800EE66EB5DFE552E66A3F
:102AC000B2DFE552150EE66E7CDFE5528C8A12000D
:102AD0008C9A150EE66E75DFE552800EE66EA3DF6A
:102AE000E552220EE66E9FDFE552E66A9CDFE55274
:102AF000800EE66E98DFE552C00EE66E94DFE5527A
:102B0000E66A91DFE552E66A8EDFE552E66A8BDF20
:102B1000E552E66A88DFE552150EE66E52DFE552B1
:102B20008C8A12008C9A150EE66E4BDFE552800EF1
:102B3000E66E79DFE552F20EE66E75DFE552E66A83
:102B400072DFE552E6686FDFE552E6686CDFE5525A
:102B5000C00EE66E68DFE552E66A65DFE552E66ABA
:102B600062DFE552E66A5FDFE552150EE66E29DFA9
:102B7000E5528C8A12008C9A150EE66E22DFE55221
:102B8000800EE66E50DFE552820EE66E4CDFE552B7
:102B9000E66A49DFE5525A0EE66E45DFE5525A0E07
:102BA000E66E41DFE5525A0EE66E3DDFE5525A0E03
:102BB000E66E39DFE5525A0EE66E35DFE5525A0E03
:102BC000E66E31DFE552150EE66EFBDEE5528C8ACD
:102BD00012008C9A150EE66EF4DEE552800EE66E5B
:102BE00022DFE552B20EE66E1EDFE552E66A1BDF1B
:102BF000E552E66A18DFE5520101336F800EE66E9A
:102C000012DFE5520101346FE6680DDFE552E66838
:102C10000ADFE552E66807DFE552E66804DFE552C1
:102C2000150EE66ECEDEE5528C8A12008C9A150ED9
:102C3000E66EC7DEE552800EE66EF5DEE552C20EA8
:102C4000E66EF1DEE552E66AEEDEE552E66AEBDEBE
:102C5000E5525A0EE66EE7DEE5525A0EE66EE3DE08
:102C6000E5525A0EE66EDFDEE5525A0EE66EDBDE08
:102C7000E5525A0EE66ED7DEE552150EE66EA1DE7F
:102C8000E5528C8A120005010351051102E0000E85
:102C900001D0010EE8B08C82E8A08C928C9A150EBF
:102CA000E66E8FDEE552800EE66EBDDEE552420E28
:102CB000E66EB9DEE5520101326FE66AB4DEE55236
:102CC000FF0E05010303F350E66EADDEE552E66E3E
:102CD000D6DCE5520F0A0501426F05C5E6FFA3DE0B
:102CE000E552E66ECCDCE5520501436FE66A9BDEF9
:102CF000E552E66EC4DCE5520501486FE66A93DEF4
:102D0000E552E66EBCDCE5520501496FE66A8BDEF2
:102D1000E552E66EB4DCE5520501466FE66A83DEF5
:102D2000E552E66EACDCE5520501476FE66A7BDEF4
:102D3000E552E66EA4DCE55205014F6FE66A73DEEC
:102D4000E552E66E9CDCE5520501516FE66A6BDEEA
:102D5000E552E66E94DCE55205014E6FE66A63DEED
:102D6000E552E66E8CDCE5520501506FE66A5BDEEB
:102D7000E552E66E84DCE5520501566FE66A53DEE5
:102D8000E552E66E7CDCE5520501576FE66A4BDEE4
:102D9000E552E66E74DCE5520501586FE66A43DEE3
:102DA000E552E66E6CDCE5520501596FE66A3BDEE2
:102DB000E552E66E64DCE5520501546FE66A33DEE7
:102DC000E552E66E5CDCE5520501556FE66A2BDEE6
:102DD000E552E66E54DCE5520501526FE66A23DEE9
:102DE000E552E66E4CDCE5520501536F150EE66EBA
:102DF000E8DDE5528C8A12000501010E406F49DEC4
:102E00005A0E0101325D01E032D0150EE66ED9DDB9
:102E1000E5525EDE150EE66ED4DDE552DADE150E05
:102E2000E66ECFDDE552800E0101345D02E1000E59
:102E300001D0010E146E335102E1000E01D0010EDB
:102E4000141001E0EBD7C5DE150EE66EBADDE552D3
:102E500069DE150EE66EB5DDE552E8DE050EE66EBE
:102E6000C2DDE5520501036B056B0DDFCCDD120001
:102E700074EC1CF0FB0EDBCFF3FFDB06F350000914
:102E80000AE0C2EC1CF0FA0E2DEC1DF0F3E1151C6B
:102E9000F1E1010E01D0000EA3EF1CF074EC1CF068
:102EA0003B0EE12402E3E168E652E16E010EDB6ACB
:102EB000020EDB6AF90EDBCFF6FFFA0EDBCFF7FF6F
:102EC000FB0EDBCFF8FF0800F550DF6EDF5002E1AC
:102ED000C7EF1BF0250EDF5C02E0BAEF1BF0030E1C
:102EE000DB6A040EDB6A050EDB6A060EDB6A070E80
:102EF000DB6ADCEC1BF02D0EDF5C0CE02B0EDF5CE4
:102F000009E0200EDF5C06E0230EDF5C03E0300EFC
:102F1000DF5C1AE1DF50300A14E0130A0FE0030A05
:102F20000AE00B0A05E0060AE4E1030EDB80E1D7C4
:102F3000030EDB82DED7030EDB84DBD7030EDB86DA
:102F4000D8D7030EDB88D5D72A0EDF5C1BE1D8EC7F
:102F50001BF026EC1CF010E0030EDB80086809680B
:102F6000130EDBCF0DF0140EDBCF0EF006EC20F0CD
:102F7000040E06C0DBFF03D0130E0FEC1CF0DCECDC
:102F80001BF00BD0090EDB6A7DEC1CF003E0F1ECCA
:102F90001CF0FAD7090E0FEC1CF0030EDBB0DB9827
:102FA0002E0EDF5C1BE1DCEC1BF02A0EDF5C0BE17C
:102FB000D8EC1BF026EC1CF003E1130E61EC1CF0C6
:102FC000DCEC1BF00BD0090EDB6A7DEC1CF003E09F
:102FD000F1EC1CF0FAD7090E61EC1CF0680EDF5C16
:102FE00007E1DCEC1BF0680EDF5C1DE1030E18D07E
:102FF000740EDF5C17E07A0EDF5C14E0480EDF5CD5
:1030000006E0540EDF5C03E05A0EDF5C02E1020EC4
:1030100007D06C0EDF5C03E06A0EDF5C04E1010E9A
:10302000B4EC1CF0C9DBDF506E0A01E17FD31E0A4D
:1030300001E192D1200A01E18FD13F0A01E149D19A
:103040001A0A01E146D10D0A01E143D1200A01E14A
:1030500040D13A0A01E13DD1200A01E13AD1260AE4
:1030600001E135D10D0A01E132D11A0A01E1D9D0CD
:10307000200A4AE0300A1FE0460A0EE0250A01E075
:1030800083D3D950F90FE96EFF0EDA20EA6E010EF4
:10309000EE5E000EEE5AEE5AC2EC1CF0250EE66E05
:1030A00095DB03E1151C01E169D3BEEC1CF001E2E4
:1030B0006BD3DB2A69D3080EDB6A040EDB500108F0
:1030C00006E2040EDB0486EC1CF0DB508BDB080E02
:1030D000DB5009E0030EDB50010B05E172DB01E080
:1030E0004DD3080EDB6A64DBEFCFDFFF36EC1DF05B
:1030F00003E1151C01E142D3BEEC1CF001E3DB2A25
:1031000060DB01E141D33AD3070EDB5002080FE147
:1031100002EC1DF0030EC9EC1CF00E0EEECFDBFF2F
:103120000F0EEECFDBFF100EEECFDBFF20D0F70E41
:10313000DBCF17F0F80EDBCF18F0020E175E000E93
:10314000185AF70E17C0DBFFF80E18C0DBFF17C0C8
:10315000E9FF18C0EAFFB9EC1CF0166A0E0E14C0A5
:10316000DBFF0F0E15C0DBFF100E16C0DBFF0E0ECF
:10317000DBCFE6FF0F0EDBCFE6FF100EDBCFE6FF67
:1031800000EC21F0E552E552E552130E07C0DBFFDB
:10319000140E08C0DBFF060EDB5005E0130EFDEC3D
:1031A0001CF001E26ADB21EC1DF002E2130E37DBBA
:1031B000E4EC1CF006E0040EFDEC1CF002E2050E4F
:1031C0002EDB030EDBB005D0FCDA01E0D7D2080E0F
:1031D000DB6A090EDB6A0E0EDBCFF6FF0F0EDBCFCC
:1031E000F7FF100EDBCFF8FF0800F550DF6EDF5061
:1031F00014E027EC1DF011E236EC1DF003E1151C84
:1032000001E1BCD2BBDB01E3DB2A090EDB2AD9508A
:103210000E0FE96E000ECBDBE7D7D3DA01E1B4D2B3
:10322000ADD2C6DA110EEECFDBFF120EEDCFDBFF13
:10323000110EDBCFE6FF120EDBCFE6FFF2EC20F043
:10324000E552E552130EF3CFDBFF140EF4CFDBFF94
:10325000060EDB5004E0130ED0DB01E20EDB21ECA6
:103260001DF002E2130EDBDAAFDB05E0040EC5DB76
:1032700002E2050ED4DA030EDBB005D0A2DA01E0DB
:103280007DD2080EDB6A090EDB6A110EDBCFE9FF87
:10329000120EDBCFEAFFEFCFDFFFDF5014E0D7DB0A
:1032A00012E2E4DB03E1151C01E168D267DB01E314
:1032B000DB2A090EDB2A110EDB2ADBCFE9FF120E17
:1032C000E8E3DB2AE6D77DDA01E15ED257D2030ECE
:1032D000DB8E070EDB0410E195DB040E5ADB0A0ED1
:1032E000EECFDBFF0B0EEECFDBFF0C0EEECFDBFFE6
:1032F0000D0EEECFDBFF6CD0070EDB5003082CE188
:10330000030EDBAE0DD0B2DA020E76DAEFCF14F098
:10331000156A166A176A14AE39D01568166835D062
:10332000F70EDBCF15F0F80EDBCF16F0020E155EB0
:10333000000E165AF70E15C0DBFFF80E16C0DBFFA5
:1033400015C0E9FF16C0EAFFEFCF14F00A0E14C053
:10335000DBFF0B0EDB6A38D0070EDB50020809E1F9
:10336000030EDBAE04D059DB16AE10D00ED055DB09
:103370000DD0030EDBAE12D079DA020E3DDAF9DAA7
:10338000166A176A15AE02D016681768E2DA0C0ED4
:1033900016C0DBFF0D0E17C0DBFF1AD0F70EDBCF18
:1033A00016F0F80EDBCF17F0020E165E000E175A5D
:1033B000F70E16C0DBFFF80E17C0DBFF16C0E9FFE3
:1033C00017C0EAFFD6DAC5DA0C0EDB6A0D0EDB6A2F
:1033D000060EDB5005E1010EF36E050EF3CFDBFFA9
:1033E000150EDB6A160EDB6AD950370F146E000E0D
:1033F000DA20156E390E14C0DBFF3A0E15C0DBFF64
:10340000380EDB6A080EDB6A0A0EAEDADF50780A85
:1034100012E0200A10E0280A0CE0200A0AE03F0A25
:1034200006E00D0A02E0200A08E1020E05D0080EAF
:1034300003D0080EDF26100E97DA030EDBBE02D093
:10344000DB92DB94DB50800B24E08ADAD890030E09
:10345000EB50000A08E6000EEE5C000EEE58000E7F
:10346000EE58000EEE5815E213DA0B680C680D6882
:103470000E6867EC21F00A0E02C0DBFF0B0E03C0E2
:10348000DBFF0C0E04C0DBFF0D0E05C0DBFF2D0EB5
:1034900008D0030EDBA202D02B0E03D0DBA408D091
:1034A000200EF36E170EF3CFDBFF150EDB2A02D0D2
:1034B000170EDB6A050EDB5003E1B7D901E189D0B5
:1034C0005E0E146E440E156E000E166E070EDBCFE8
:1034D00017F0186A196A1A6A17C00BF018C00CF0B6
:1034E00019C00DF01AC00EF0D3D99FEC21F0145082
:1034F0000224F36E15500320F46E16500420F86E6B
:10350000F4CFF7FFF3CFF6FF0800090EF5CFDBFF8E
:10351000580EDF5C0FE1610EF36E090E7BD90AE3F2
:10352000200E146E090EDBCFE7FF1450E75E090E84
:10353000E7CFDBFF070EDBCF14F0156A166A176AB8
:103540000FDA14C00BF015C00CF016C00DF017C048
:103550000EF0EECF06F0EECF07F0EECF08F0EFCF93
:1035600009F09FEC21F009C0EDFF08C0EDFF07C096
:10357000EDFF06C0EFFF390EDBCFE9FFDB063A0EA9
:10358000DBCFEAFF01E2DB06090EDBCFEFFF150E12
:10359000DB2A4BD995E1030EDBA61DD06F0EDF5C55
:1035A00006E1C1D918E3150EDB285BDA14D0780EDA
:1035B000DF5C09E0580EDF5C06E0620EDF5C03E0D2
:1035C000420EDF5C08E1020EF36E160EF3CFDBFF56
:1035D00002D0150EDB6A030EDB50100B0EE0040E5A
:1035E000DBCF14F0050EDB50D880145406E2060E33
:1035F000DB5003E1040EDB5034DA95D90AE2050E04
:10360000DBCFE7FF150EDB50E75E050EE7CFDBFFF4
:1036100002D0050EDB6A040EDBCF14F0160E45D97E
:10362000D880145414E2160EDBCFE6FF150EDBCF64
:10363000E6FF040EDBCFE6FF050EDB50E552E75C4C
:10364000E552D880E754E552D880E7545FD9030E9D
:10365000DB50010B0BE1080EDB5008E0B2D801E0B3
:103660008DD0080EDB50BED8080EDB6A170EDB507B
:1036700007E088D9170EF1D903E1151C01E17ED0CE
:10368000160EDB5016E07ED9300EE66E9FD802E1B2
:10369000151C74E077D9DFCFE6FF25EC21F0E55269
:1036A000E552E552F4CF15F00001F31C02E1151CC0
:1036B00065E0050EDBCF14F0160EDB50D8801454F5
:1036C00009E2050EDBCFE7FF160EDB50E75E050EC5
:1036D000E7CFDBFF300EE66E050ECBD94FE1390E9A
:1036E000DB2ADBCFE9FF3A0E01E3DB2ADBCFEAFF7F
:1036F000090EEFCFDBFFDB500EE044D9090EADD948
:1037000002E1151C3BE0390EDB2ADBCFE9FF3A0E64
:10371000EDE3DB2AEBD755D831E1160EDBCFE6FF20
:10372000080EC3D8E552E7245DD82ED0070EDB5033
:10373000030A1CE0010A14E0030A07E07BD9DBCF8F
:10374000EEFF020EDBCFEDFF1FD0F5D8196A17AEE2
:1037500002D0186819682CD8BCD819C0EEFF14D054
:10376000EAD817BE186824D8B4D80ED063D9DBCFF6
:10377000EFFF0AD07BD905E1151C03E1F368F4687B
:1037800010D0FCD801E3DB2A79D963EF17F0010EE2
:10379000DBCF14F0020EDBCF15F014C0F3FF15C021
:1037A000F4FF3B0EE15C02E2E16AE552E16ECBD050
:1037B00029D9020EC9EF1CF061D90800F550DF6E5F
:1037C0001200200EE66E080E39EF1DF025EC21F0F8
:1037D000E552E552E552F3CF14F0F4CF15F00001B5
:1037E000F31C1200146E156AD950010F4DD91450F4
:1037F000EE261550ED221200185E000E195AF70E33
:1038000018C0DBFFF80E19C0DBFF18C0E9FF19C0B4
:10381000EAFF1200DBCFF4FFF350F45C1200DB5040
:10382000E76E040EE7CFDBFF12000A0EDBCF14F0C9
:103830000B0EDBCF15F00C0EDBCF16F00D0EDBCF31
:1038400017F014501510161017101200130EEECFAB
:10385000DBFF140EEDCFDBFF130EDBCF14F0140EE5
:10386000DBCF15F00001800E15141200F70EDBCF30
:1038700018F0F80EDBCF19F01200050EDB50E66EE3
:10388000D950130F01D9E552E750EE6EED6A1200E0
:103890000A0EDBCF06F00B0EDBCF07F00C0EDBCFF2
:1038A00008F00D0EDBCF09F01200DBCFE6FF150E9E
:1038B000DBCFE6FF050EDB50E552E724E552E724B7
:1038C0001200DB50CED8010EF36E060EF3CFDBFFF5
:1038D0001200EE50EFCFEAFFE96E16C0EEFF17C000
:1038E000EEFF18C0EEFF1200D9CFE6FFDACFE6FFF9
:1038F000E1CFD9FFE2CFDAFF1200DFCFE6FFE66AC1
:10390000E1EC21F0E552E552F3501200E76E080EAB
:10391000E7CFDBFF1200EECF14F0EECF15F0EFCFC4
:1039200016F0176A1200050EDBCF14F0150EDB50EF
:10393000D88014541200010EDBCF16F0020EDBCF3C
:1039400017F0186A1200E552E5CFDAFFE7CFD9FF8A
:1039500012000A0E14C0DBFF0B0E15C0DBFF1200B5
:10396000D9500A0F44EF1DF0F36E070EF3CFDBFFC3
:103970001200EECF14F0EFCF15F01200010EDB2A8B
:10398000020E1200FC0EDBCFE6FFFD0EDBCFE6FFE2
:103990001200145E000E155AF70E14C0DBFFF80E6D
:1039A00015C0DBFF14C0E9FF15C0EAFF1200DA20E2
:1039B000EA6EEF2AEECFF6FF000EEF22EECFF7FF12
:1039C000EF22EECFF8FF1200040EDBCFE6FF130E5E
:1039D000DB50E552E75C9ADFDB5004DF060EDB507C
:1039E0001200090EDB500A0DF350DF24D00FE76EF2
:1039F000090EE7CFDBFFDCEF1BF0DB50F36E050EAB
:103A00000AEF1CF0F70EDBCF14F0F80EDBCF15F049
:103A10001200DFCFE6FFE6EF1BF028DF030EECDE3F
:103A20008BEF1CF038EC17F0E552E552E552E55209
:103A300000091200BDDEEE50EFCFEAFFE96E010E85
:103A40001200130EDB50F36E040E0AEF1CF0040E8E
:103A5000DB50F36E090E0AEF1CF0DBCFE6FFE6EF5A
:103A60001BF0E76E050EE7CFDBFF12008BDF09EFDF
:103A70001DF0DBCFE6FF86DF12EF1DF0D950F90F06
:103A8000E96EFF0ED7EF1CF0E96E000EDA20EA6E49
:023A9000120022
:0E3A92000001606B616B626B636B646B656B54
:103AA0001200D9CFE6FFE1CFD9FF020EE126FD0ECD
:103AB000DBCFE6FFFE0EDBCFE6FFF2EC20F0E552B7
:103AC000E55200016451F324146E6551F420156E23
:103AD0007E0E145C000E155801E372D0DE6ADD6ABA
:103AE000DECF14F0DDCF15F014C0E6FF15C0E6FF01
:103AF000FD0EDBCFE6FFFE0EDBCFE6FFF2EC20F0A3
:103B0000E552E552E552E7CF15F0E552E7CF14F064
:103B1000F3CF16F0F4CF17F01650145C1750155869
:103B200028E2FD0EDBCF14F0FE0EDBCF15F0DE50E9
:103B30001424E96EDD501520EA6EEF50E66E660E35
:103B400000016225E96E000E6321EA6EE552E7503E
:103B5000EF6E010E6225626F000E6321636F636B6F
:103B6000629F642B000E6523DF2A010E01E3DB2A2E
:103B7000B7D7660E00016225E96E000E6321EA6E7A
:103B80000D0EEF6E010E6225626F000E6321636FF2
:103B9000636B629F642B000E6523660E6225E96EDF
:103BA000000E6321EA6E0A0EEF6E010E6225626F4F
:103BB000000E6321636F636B629F642B000E6523AD
:103BC000020EE15C02E2E16AE552E16EE552E7CF06
:103BD000D9FF1200D9CFE6FFE1CFD9FF040EE126CD
:103BE000DE6ADD6A00013F0ED8806455000E65551F
:103BF00004E23F0EDE6EDD6A04D064C0DEFF65C005
:103C0000DDFFDECF14F0DDCF15F01406000E155ADF
:103C1000FD0EDBCFE9FFFE0EDBCFEAFF14C0EFFFA6
:103C20006451651140E0010EF36E020EF3CFDBFF2D
:103C3000030EDB6A020EDBCF14F0030EDBCF15F0B0
:103C4000DECF16F0DDCF17F01650145C1750155864
:103C50002AE2660E6025E96E000E6121EA6EEF50E1
:103C6000E66E020EDBCF14F0030EDBCF15F0FD0E77
:103C7000DB501424E96EFE0EDB501520EA6EE5528F
:103C8000E750EF6E010E6025606F000E6121616FDD
:103C9000616B609F6407000E655B020EDB2A030EFA
:103CA00001E3DB2AC7D7040EE15C02E2E16AE552D8
:0A3CB000E16EE552E7CFD9FF1200E4
:063CBA0000010400070CEC
:103CC000010218181818090A101112130000000038
:103CD00004000202020200000004040404000004C4
:103CE00000010207001700000000000000000000B3
:103CF00000000000000000000000F2FFFF000006CE
:103D0000F548E24900035081D8018A130000000001
:103D10000400020202020000000404040400000483
:103D20000001020700170000000000000000000072
:103D30000000000000000000000001000023067CDD
:103D4000B90BE24900035081D8018A13000000003A
:103D50000400020202020000000404040400000443
:103D60000001020700170000000000000000000032
:103D70000000000000000000000000EF0400070346
:103D800001A00000000000000000000200018E02FF
:103D900000018E01FF018D01F80076000000000097
:103DA000000000000000000000000500000000000E
:103DB00000000000000000000000000100000703F8
:103DC00001B0000000000000000000026D026E0063
:103DD00000000000000000000000000000000000E3
:103DE00000000000000000000000050000000000CE
:103DF000000000000000000000000201D402E60103
:103E0000F1FF14330202D301E500000202020003B5
:103E1000000002000002620102015E0032000000A8
:103E2000000000000000000000000500000000008D
:0A3E30000000000000000000000088
:063E3A001201000200006D
:103E400000404C056802000101020001090229003E
:103E50000101008064090400000203000000092140
:103E600011010001229400070581034000010705AC
:103E70000103400001040309041C034D004F0044EA
:103E8000004D0041004E002E0053005400550044E8
:103E90000049004F00360350004C004100590053C8
:103EA0000054004100540049004F004E00280052C9
:103EB0000029003300200043006F006E0074007280
:103EC000006F006C006C00650072000C0356005F10
:103ED0000031002E00300005010904A101A1028576
:103EE0000175089501150026FF00810375019513E2
:103EF0001500250135004501050919012913810225
:103F00007501950D0600FF8103150026FF000501D0
:103F10000901A10075089504350046FF0009300924
:103F200031093209358102C005017508952709015B
:103F300081027508953009019102750895300901D3
:103F4000B102C0A1028502750895300901B102C015
:103F5000A10285EE750895300901B102C0A1028564
:103F6000EF750895300901B102C0C04C3E00753EA6
:0A3F700000793E00953E00CB3E00B4
:063F7A0009C013F008C0AD
:103F800012F007C011F007500C02F4CF05F0F3CF88
:103F900004F008500D02F4CF07F0F3CF06F00C0246
:103FA000F3500526F4500622E86A072211500D024C
:103FB000F3500526F4500622E86A072209500C0245
:103FC000F3500626F450072209500D02086AE86AE9
:103FD0000822F3500726F450082211500E02F35025
:103FE0000626F4500722096AE86A082209221250BC
:103FF0000E02F3500726F4500822E86A09221350F3
:104000000E02F3500826F4500922000C09C013F0E8
:1040100008C012F008500D02F4CF07F0F3CF06F0FD
:1040200009500E02F4CF09F0F3CF08F00D02F3505F
:104030000726F4500822E86A092212500E02F350B3
:104040000726F4500822E86A09220EAE2CEF20F071
:104050001250085E1350095A13AE000C0D50085E42
:064060000E50095A000C8D
:0A406600D9CFE6FFDACFE6FFE1CF85
:10407000D9FFE2CFDAFFE652E652E652E652D950D5
:10408000F90F146EFF0EDA20156E020E14C0DBFF5E
:10409000030E15C0DBFF020EDBCFE6FF030EDBCF06
:1040A000E6FFF90EDBCFE6FFFA0EDBCFE6FFFB0EF5
:1040B000DBCFE6FFD950FC0FE66EFF0EDA20E66E8E
:1040C0004EEC17F0146E070EE15C02E2E16AE55275
:1040D000E16E1450F3CFDEFFF4CFDDFFFC0EDBCF3B
:1040E000E9FFFD0EDBCFEAFFEF6ADECF14F0DDCF94
:1040F00015F014C0F3FF15C0F4FF040EE15C02E2FA
:10410000E16AE552E16EE552E5CFDAFFE7CFD9FF8C
:0241100012009B
:0E4112002A0EF66E100EF76E000EF86E00010B
:104120000900F550EB6F0900F550EC6F03E1EB6708
:1041300001D03DD00900F550E66F0900F550E76F5A
:104140000900F550E86F09000900F550E96E090013
:10415000F550EA6E090009000900F550E96F090001
:10416000F550EA6F09000900F6CFEDF0F7CFEEF059
:10417000F8CFEFF0E6C0F6FFE7C0F7FFE8C0F8FFC2
:104180000001E95302E1EA5307E00900F550EE6E41
:10419000E907F8E2EA07F9D7EDC0F6FFEEC0F7FF4E
:1041A000EFC0F8FF0001EB07000EEC5BBFD7120079
:1041B000FE0EE3CFE9FFFF0EE3CFEAFFE9CFF3FF07
:1041C000EACFF4FFFB0EE35003E1FC0EE35009E0FD
:1041D000FB0EE30602E2FC0EE306FD0EE350EE6E7C
:1041E000F1D71200FE0EE3CFE9FFFF0EE3CFEAFFA7
:1041F000F36AF46AEE5203E0F34AF42AFBD71200A2
:10420000FF0EE3CFF8FFE552FF0EE3CFF7FFE552D5
:10421000FF0EE3CFF6FFE552E66AE66AE66A0900BA
:10422000F55209E0FD0EE32A05E1FE0EE32A02E164
:10423000FF0EE32AF4D7FD0EE3CF07F0FE0EE3CF27
:0A42400008F0FF0EE3CF09F01200B2
:06424A00D9CFE6FFDACF38
:10425000E6FFE1CFD9FFE2CFDAFFFB0EDBCF14F0B0
:10426000FC0EDBCF15F00001800E15141AE1FB0ED9
:10427000DBCFE9FFFC0EDBCFEAFFEECFF3FFEDCFA4
:10428000F4FFEE2A000EEF22F3CFE9FFF4CFEAFFAE
:10429000FD0EDBCFEFFFEF50156AF36E15C0F4FF94
:1042A00010D0FB0EDB50FE0806E1FD0EDBCFE6FF73
:1042B00021EC22F005D0FD0EDBCFE6FF38EC22F03A
:0E42C000E552E552E5CFDAFFE7CFD9FF120055
:0242CE00065098
:1042D0000B02F3CF02F0F4CF03F00C02F3500326ED
:1042E000000EF420046E06500D02F3500426000E5A
:1042F000F420056E06500E02F350052607500B02FF
:10430000F3500326F4500422000E052207500C023D
:10431000F3500426F450052207500D02F3500526F1
:1043200008500B02F3500426F450052208500C02EA
:0E433000F350052609500B02F350052612002B
:02433E00056A0E
:10434000046A036A026A200EE76ED89006360736C2
:104350000836093602360336043605360B50025C41
:104360000C5003580D5004580E50055809E30B50DB
:10437000025E0C50035A0D50045A0E50055A062A7C
:06438000E72EE4D7120055
:0A43860055534220446576696365D3
:1043900020496E697469616C697365642E00536F9E
:1043A0006E79204475616C73686F636B20322043B3
:1043B0006F6E74726F6C6C657220416461707465AD
:0243C000720089
:0E43C200F36AF46AFF0EE124E96EFF0EE220BA
:1043D000EA6EED6607D02F0EEF6404D03A0EEF6060
:0643E00001D0F32A1200D7
:0A43E600FF0EE3501B6E480E01D0DD
:1043F0004C0EE76EE72EFED7E76AE72EFED71B2EA0
:06440000F7D700001200D6
:0A440600000EF36E00EE00F0080E49
:1044100001D81200EA6002D0EE6AFCD7F350E960DE
:064420001200EE6AFCD759
:0A44260013EE00F023EE00F0F86A38
:10443000019C89EC20F039EC22F0D3EC12F0FBD790
:02444000120068
:0E444200FF0EE350ACBA04D0AF6AAB8EAC8A6A
:0E445000949CACA2FED7AD6EF36EF46A12001F
:02445E003031FB
:0F4460003233343536373839616263646566004C
:02447000120038
:02447200120036
:0644740000000000010041
:020000040030CA
:0100000024DB
:010001000EF0
:010002003FBE
:010003001EDE
:010005008179
:010006008178
:010008000FE8
:01000900C036
:01000A000FE6
:01000B00E014
:01000C000FE4
:01000D0040B2
:00000001FF
